{
  "contractName": "ERC721Holder",
  "abi": [
    {
      "constant": false,
      "inputs": [
        {
          "name": "",
          "type": "address"
        },
        {
          "name": "",
          "type": "address"
        },
        {
          "name": "",
          "type": "uint256"
        },
        {
          "name": "",
          "type": "bytes"
        }
      ],
      "name": "onERC721Received",
      "outputs": [
        {
          "name": "",
          "type": "bytes4"
        }
      ],
      "payable": false,
      "stateMutability": "nonpayable",
      "type": "function"
    }
  ],
  "bytecode": "0x608060405234801561001057600080fd5b506101a7806100206000396000f300608060405260043610610041576000357c0100000000000000000000000000000000000000000000000000000000900463ffffffff168063150b7a0214610046575b600080fd5b34801561005257600080fd5b506100f7600480360381019080803573ffffffffffffffffffffffffffffffffffffffff169060200190929190803573ffffffffffffffffffffffffffffffffffffffff16906020019092919080359060200190929190803590602001908201803590602001908080601f016020809104026020016040519081016040528093929190818152602001838380828437820191505050505050919291929050505061014b565b60405180827bffffffffffffffffffffffffffffffffffffffffffffffffffffffff19167bffffffffffffffffffffffffffffffffffffffffffffffffffffffff1916815260200191505060405180910390f35b600063150b7a027c01000000000000000000000000000000000000000000000000000000000290509493505050505600a165627a7a72305820a52371718f5f52405858173400efc3491d8d7b5d5e7b2ae4e9f65e7abe16c7d30029",
  "source": "pragma solidity ^0.4.24;\n\nimport \"./IERC721Receiver.sol\";\n\n\ncontract ERC721Holder is IERC721Receiver {\n  function onERC721Received(\n    address,\n    address,\n    uint256,\n    bytes\n  )\n    public\n    returns(bytes4)\n  {\n    return this.onERC721Received.selector;\n  }\n}\n",
  "sourcePath": "/Users/raf01373/Downloads/Project 5 - starter code/Project 5 - Boilerplate with Zeppelin/smart_contracts/contracts/node_modules/openzeppelin-solidity/contracts/token/ERC721/ERC721Holder.sol",
  "compiler": {
    "name": "solc",
    "version": "0.4.24+commit.e67f0147.Emscripten.clang"
  },
  "schemaVersion": "2.0.1",
  "updatedAt": "2018-10-17T19:19:36.500Z"
}