{
  "contractName": "SplitPayment",
  "abi": [
    {
      "inputs": [
        {
          "name": "payees",
          "type": "address[]"
        },
        {
          "name": "shares",
          "type": "uint256[]"
        }
      ],
      "payable": true,
      "stateMutability": "payable",
      "type": "constructor"
    },
    {
      "payable": true,
      "stateMutability": "payable",
      "type": "fallback"
    },
    {
      "constant": true,
      "inputs": [],
      "name": "totalShares",
      "outputs": [
        {
          "name": "",
          "type": "uint256"
        }
      ],
      "payable": false,
      "stateMutability": "view",
      "type": "function"
    },
    {
      "constant": true,
      "inputs": [],
      "name": "totalReleased",
      "outputs": [
        {
          "name": "",
          "type": "uint256"
        }
      ],
      "payable": false,
      "stateMutability": "view",
      "type": "function"
    },
    {
      "constant": true,
      "inputs": [
        {
          "name": "account",
          "type": "address"
        }
      ],
      "name": "shares",
      "outputs": [
        {
          "name": "",
          "type": "uint256"
        }
      ],
      "payable": false,
      "stateMutability": "view",
      "type": "function"
    },
    {
      "constant": true,
      "inputs": [
        {
          "name": "account",
          "type": "address"
        }
      ],
      "name": "released",
      "outputs": [
        {
          "name": "",
          "type": "uint256"
        }
      ],
      "payable": false,
      "stateMutability": "view",
      "type": "function"
    },
    {
      "constant": true,
      "inputs": [
        {
          "name": "index",
          "type": "uint256"
        }
      ],
      "name": "payee",
      "outputs": [
        {
          "name": "",
          "type": "address"
        }
      ],
      "payable": false,
      "stateMutability": "view",
      "type": "function"
    },
    {
      "constant": false,
      "inputs": [
        {
          "name": "account",
          "type": "address"
        }
      ],
      "name": "release",
      "outputs": [],
      "payable": false,
      "stateMutability": "nonpayable",
      "type": "function"
    }
  ],
  "bytecode": "0x60806040526000805560006001556040516108b73803806108b7833981018060405281019080805182019291906020018051820192919050505060008151835114151561004b57600080fd5b6000835111151561005b57600080fd5b600090505b82518110156100bd576100b0838281518110151561007a57fe5b90602001906020020151838381518110151561009257fe5b906020019060200201516100c5640100000000026401000000009004565b8080600101915050610060565b505050610255565b600073ffffffffffffffffffffffffffffffffffffffff168273ffffffffffffffffffffffffffffffffffffffff161415151561010157600080fd5b60008111151561011057600080fd5b6000600260008473ffffffffffffffffffffffffffffffffffffffff1673ffffffffffffffffffffffffffffffffffffffff1681526020019081526020016000205414151561015e57600080fd5b60048290806001815401808255809150509060018203906000526020600020016000909192909190916101000a81548173ffffffffffffffffffffffffffffffffffffffff021916908373ffffffffffffffffffffffffffffffffffffffff1602179055505080600260008473ffffffffffffffffffffffffffffffffffffffff1673ffffffffffffffffffffffffffffffffffffffff1681526020019081526020016000208190555061022a816000546102346401000000000261057d179091906401000000009004565b6000819055505050565b600080828401905083811015151561024b57600080fd5b8091505092915050565b610653806102646000396000f300608060405260043610610078576000357c0100000000000000000000000000000000000000000000000000000000900463ffffffff168063191655871461007a5780633a98ef39146100bd5780638b83209b146100e85780639852595c14610155578063ce7c2ac2146101ac578063e33b7de314610203575b005b34801561008657600080fd5b506100bb600480360381019080803573ffffffffffffffffffffffffffffffffffffffff16906020019092919050505061022e565b005b3480156100c957600080fd5b506100d2610495565b6040518082815260200191505060405180910390f35b3480156100f457600080fd5b506101136004803603810190808035906020019092919050505061049e565b604051808273ffffffffffffffffffffffffffffffffffffffff1673ffffffffffffffffffffffffffffffffffffffff16815260200191505060405180910390f35b34801561016157600080fd5b50610196600480360381019080803573ffffffffffffffffffffffffffffffffffffffff1690602001909291905050506104e1565b6040518082815260200191505060405180910390f35b3480156101b857600080fd5b506101ed600480360381019080803573ffffffffffffffffffffffffffffffffffffffff16906020019092919050505061052a565b6040518082815260200191505060405180910390f35b34801561020f57600080fd5b50610218610573565b6040518082815260200191505060405180910390f35b6000806000600260008573ffffffffffffffffffffffffffffffffffffffff1673ffffffffffffffffffffffffffffffffffffffff1681526020019081526020016000205411151561027f57600080fd5b6102ab6001543073ffffffffffffffffffffffffffffffffffffffff163161057d90919063ffffffff16565b9150610364600360008573ffffffffffffffffffffffffffffffffffffffff1673ffffffffffffffffffffffffffffffffffffffff16815260200190815260200160002054610356600054610348600260008973ffffffffffffffffffffffffffffffffffffffff1673ffffffffffffffffffffffffffffffffffffffff168152602001908152602001600020548761059e90919063ffffffff16565b6105dc90919063ffffffff16565b61060690919063ffffffff16565b90506000811415151561037657600080fd5b803073ffffffffffffffffffffffffffffffffffffffff16311015151561039957fe5b6103eb81600360008673ffffffffffffffffffffffffffffffffffffffff1673ffffffffffffffffffffffffffffffffffffffff1681526020019081526020016000205461057d90919063ffffffff16565b600360008573ffffffffffffffffffffffffffffffffffffffff1673ffffffffffffffffffffffffffffffffffffffff168152602001908152602001600020819055506104438160015461057d90919063ffffffff16565b6001819055508273ffffffffffffffffffffffffffffffffffffffff166108fc829081150290604051600060405180830381858888f1935050505015801561048f573d6000803e3d6000fd5b50505050565b60008054905090565b60006004828154811015156104af57fe5b9060005260206000200160009054906101000a900473ffffffffffffffffffffffffffffffffffffffff169050919050565b6000600360008373ffffffffffffffffffffffffffffffffffffffff1673ffffffffffffffffffffffffffffffffffffffff168152602001908152602001600020549050919050565b6000600260008373ffffffffffffffffffffffffffffffffffffffff1673ffffffffffffffffffffffffffffffffffffffff168152602001908152602001600020549050919050565b6000600154905090565b600080828401905083811015151561059457600080fd5b8091505092915050565b60008060008414156105b357600091506105d5565b82840290508284828115156105c457fe5b041415156105d157600080fd5b8091505b5092915050565b6000806000831115156105ee57600080fd5b82848115156105f957fe5b0490508091505092915050565b60008083831115151561061857600080fd5b828403905080915050929150505600a165627a7a7230582036d2db6dd1ed987a02f3c9464410c7e951a5e7cdf44c13c448154cc8108ac7530029",
  "source": "pragma solidity ^0.4.24;\n\nimport \"../math/SafeMath.sol\";\n\n\n/**\n * @title SplitPayment\n * @dev This contract can be used when payments need to be received by a group\n * of people and split proportionately to some number of shares they own.\n */\ncontract SplitPayment {\n  using SafeMath for uint256;\n\n  uint256 private _totalShares = 0;\n  uint256 private _totalReleased = 0;\n\n  mapping(address => uint256) private _shares;\n  mapping(address => uint256) private _released;\n  address[] private _payees;\n\n  /**\n   * @dev Constructor\n   */\n  constructor(address[] payees, uint256[] shares) public payable {\n    require(payees.length == shares.length);\n    require(payees.length > 0);\n\n    for (uint256 i = 0; i < payees.length; i++) {\n      _addPayee(payees[i], shares[i]);\n    }\n  }\n\n  /**\n   * @dev payable fallback\n   */\n  function () external payable {}\n\n  /**\n   * @return the total shares of the contract.\n   */\n  function totalShares() public view returns(uint256) {\n    return _totalShares;\n  }\n\n  /**\n   * @return the total amount already released.\n   */\n  function totalReleased() public view returns(uint256) {\n    return _totalReleased;\n  }\n\n  /**\n   * @return the shares of an account.\n   */\n  function shares(address account) public view returns(uint256) {\n    return _shares[account];\n  }\n\n  /**\n   * @return the amount already released to an account.\n   */\n  function released(address account) public view returns(uint256) {\n    return _released[account];\n  }\n\n  /**\n   * @return the address of a payee.\n   */\n  function payee(uint256 index) public view returns(address) {\n    return _payees[index];\n  }\n\n  /**\n   * @dev Release one of the payee's proportional payment.\n   * @param account Whose payments will be released.\n   */\n  function release(address account) public {\n    require(_shares[account] > 0);\n\n    uint256 totalReceived = address(this).balance.add(_totalReleased);\n    uint256 payment = totalReceived.mul(\n      _shares[account]).div(\n        _totalShares).sub(\n          _released[account]\n    );\n\n    require(payment != 0);\n    assert(address(this).balance >= payment);\n\n    _released[account] = _released[account].add(payment);\n    _totalReleased = _totalReleased.add(payment);\n\n    account.transfer(payment);\n  }\n\n  /**\n   * @dev Add a new payee to the contract.\n   * @param account The address of the payee to add.\n   * @param shares_ The number of shares owned by the payee.\n   */\n  function _addPayee(address account, uint256 shares_) internal {\n    require(account != address(0));\n    require(shares_ > 0);\n    require(_shares[account] == 0);\n\n    _payees.push(account);\n    _shares[account] = shares_;\n    _totalShares = _totalShares.add(shares_);\n  }\n}\n",
  "sourcePath": "/Users/raf01373/Downloads/Project 5 - starter code/Project 5 - Boilerplate with Zeppelin/smart_contracts/contracts/node_modules/openzeppelin-solidity/contracts/payment/SplitPayment.sol",
  "compiler": {
    "name": "solc",
    "version": "0.4.24+commit.e67f0147.Emscripten.clang"
  },
  "schemaVersion": "2.0.1",
  "updatedAt": "2018-10-17T19:19:36.491Z"
}